S012000052565F4D43555F3033312E7372656333
S11300000C943C000C9459000C9459000C94590025
S11300100C9459000C9459000C9459000C945900F8
S11300200C9459000C9459000C9459000C945900E8
S11300300C9459000C9459000C9459000C94F40439
S11300400C9459000C9473000C9459000C945900AE
S11300500C9459000C9459000C9459000C945900B8
S11300600C9459000C9459000C9459000C945900A8
S11300700C9459000C94590011241FBECFEFCDBF2E
S1130080DFE3DEBF14E3A0E0B4E3E6E5F9E102C098
S113009005900D92A233B107D9F726E3A2E3B4E3A6
S11300A001C01D92A43EB207E1F70E945D000C94CA
S11300B0650A0C9400000C946B020E945B00789417
S11300C08EEC94E99F938F930E940E070F900F90EC
S11300D00E94BE002AE684E091E0215080409040D6
S11300E0E1F700C0F5CF1F920F920FB60F921124C3
S11300F02F933F934F935F936F937F938F939F932C
S1130100AF93BF93CF93DF93EF93FF93C091583690
S1130110D09159360E94C705CA52DB4C88838A3075
S1130120A1F08091583690915936FC01EA52FB4C6B
S11301302081283021F4009749F3019701C00196EA
S11301408093583690935936E1CF81E090E08093C4
S1130150563690935736FF91EF91DF91CF91BF912F
S1130160AF919F918F917F916F915F914F913F914B
S11301702F910F900FBE0F901F901895CF92DF9282
S1130180EF92FF920F931F93CF93DF9300D0CDB7DD
S1130190DEB78091563690915736019709F048C1E1
S11301A047E050E062EF74E986ED94E30E940007B3
S11301B0892BD9F56DED74E38AE596E30E94F9067F
S11301C040E150E0BE016F5F7F4F8AE596E30E94F5
S11301D0DA05672F7727672BB1F440E150E0BE01C1
S11301E06F5F7F4F8AE596E30E94DA057F936F93F2
S11301F08AEF94E99F938F930E940E070F900F90BC
S11302000F900F9004C083E195E90E942407809128
S11302105836909159362091DA363091DB36E6ED36
S1130220F4E3A6EDB5E360E2C5C047E050E06EE25A
S113023075E986ED94E30E940007892B09F062C0FA
S11302406DED74E386E595E30E94F90640E150E024
S1130250BE016F5F7F4F8AE596E30E94DA05162F91
S1130260862F972F892B19F486E395E9CECF40E1A9
S113027050E0BE016F5F7F4F86E595E30E94DA058B
S11302806B017C0140E150E060E070E089819A817B
S11302900E94DA059B01AC0180915A35803269F0E5
S11302A08BE495E90E942407809158369091593641
S11302B00797E6E5F5E340E21CC0832F9927892BD5
S11302C0A9F499278F2D7E2D6D2D4C2D812F0E9401
S11302D030051F928F9388E695E99F938F930E9430
S11302E00E070F900F900F900F90DECF85E795E9E2
S11302F0D9CF9F0126553543281739070CF087CFEE
S11303004193F7CF47E050E067E875E986ED94E361
S11303100E940007892B09F07ACF6DED74E386E51E
S113032094E30E94F90640E150E0BE016F5F7F4F05
S11303308AE596E30E94DA05F62E862F972F892BFD
S113034009F492CF40E150E0BE016F5F7F4F86E534
S113035094E30E94DA05462F062F172F9C01811182
S113036014C09927832F722F612F8F2D0E9472053D
S11303701F928F938FE895E99F938F930E940E07A6
S11303800F900F900F900F9004C08FE995E90E9491
S1130390240780915836909159360797E6E5F4E39F
S11303A040E29F0126553443281739070CF02FCF1C
S11303B04193F7CFAF01465D54434817590724F4DE
S11303C040814D936193F6CF97FF02C080E090E0A7
S11303D0820F931F8093DA369093DB36109258364F
S11303E0109259368DEB95E99F938F930E940E07D7
S11303F00F900F9006ED15E32091DA363091DB363D
S1130400C801865D95438217930734F4F8018191FE
S11304108F010E94CE05F0CF87EC95E90E94240756
S113042010925636109257361092DA361092DB3606
S11304300F900F90DF91CF911F910F91FF90EF904C
S1130440DF90CF90089580E0089580E0089580E0E3
S11304500895E0E1F4E0808188608193E83184E0EC
S1130460F807C9F7E0E3F4E0808188608193E8331A
S113047084E0F807C9F7E0E5F4E0808188608193BF
S1130480E83584E0F807C9F708952398E3E3F4E036
S11304908081877F80832A98229A0C94B3052898B8
S11304A0209AE0E3F4E08081877F808380818F77E6
S11304B080838081887F80832998219AE1E3F4E016
S11304C08081877F808380818F7780838081887F0C
S11304D080830C9446040E9429020198E1E1F4E02F
S11304E08081886080830298E2E1F4E08081886002
S11304F08083059A0D9A0E9425020E9445020E945B
S113050027020E94B1050E944F020C942302E0EAE4
S1130510F8E0848188608483858181608583E2E357
S1130520F4E380818E7F808313868EE00895E2E376
S1130530F4E380818E7F8083138680E00895E0EA6F
S1130540F8E0848183608483E2E3F4E380818E7F36
S11305508083138680E00895E2E3F4E38081886079
S113056080838181880F81608093A70884E0089547
S11305700C94AC02E2E3F4E380818860808381819F
S1130580880F8093A70883E008950C94BA028091A1
S11305903234877F8093323482E080933D34E0911B
S11305A04234F091433480914E3490914F34099504
S11305B0823021F0833021F40C94BA020C94AC0202
S11305C00C949F02E0EAF8E084818B7F848384E0CA
S11305D00895E0EAF8E084818B7F848383E00895C2
S11305E0E0EAF8E084818460848384818360848386
S11305F0E2E3F4E380818E7F8083138680E00895B4
S1130600E0EAF8E084818460848388E0089580913E
S1130610A50888608093A50882E080933D34E0912A
S11306204034F091413480914C3490914D3409958B
S1130630823021F0833021F40C94BA020C94AC0281
S11306400C948702E0EAF8E08481886084838581E1
S113065081608583E2E3F4E380818E7F808382E09E
S113066083878EE008958091A508806C8093A50807
S11306708091323483FF07C08091A50884FF03C0B2
S11306808FE080933C348091A50883FF03C080E110
S113069080933C348091A50882FF03C081E180935C
S11306A03C34E0913C34F0E0EE0FFF1FE050FC4C92
S11306B00190F081E02D099580933C34089581E008
S11306C0089585E0089590E0FC01EE0FFF1FE25CC1
S11306D0FB4C6115710551F060837183880F991F7C
S11306E0FC01E65BFB4C4083518308952FE533E026
S11306F020833183880F991FFC01E65BFB4C108239
S1130700118208958091A50884FF13C0E0914434B8
S1130710F091453480915034909151340995823050
S113072021F0833021F40C94BA020C94AC020C94A2
S11307309F0280913234877F80933234E091343445
S1130740F0913534CF01019680933434909335344D
S113075080818093A8088091363490913734019732
S11307608093363490933734892B11F485E00895BF
S113077083E0089580913234877F8093323480916E
S11307803634909137342091A4088130910511F4C6
S1130790246001C02B7F2093A408019780933634F2
S11307A090933734E0913434F0913534892B09F542
S11307B08091A808808380913434909135340196D7
S11307C080933434909335348091323484608093B0
S11307D03234E0913E34F0913F3480914A34909128
S11307E04B3409958250823010F40C9400030C941D
S11307F0F0028091A808808380913434909135343C
S1130800019680933434909335348091A4088260A7
S11308108093A40884E008958091A50884FF0EC005
S1130820E0914434F09145348091503490915134A6
S113083009958230B9F08330B9F01AC0809132340E
S1130840846080933234E0913E34F0913F3480915F
S11308504A3490914B340995833031F0843031F02F
S1130860823031F40C94AC020C94BA020C948203DE
S11308700C949F020C94AC02AB01BC0180E00C947C
S11308806303AB01BC0182E00C946303E0EAF8E08B
S11308908BE0868381EC838308959091323491FDBB
S11308A053C080933334892F847F9EE090933C34EB
S11308B024EF31E020933A3430933B3482608460F7
S11308C0809332348FE593E080933E3490933F34A9
S11308D010924A3410924B348093403490934134B4
S11308E010924C3410924D3480934234909343349C
S11308F010924E3410924F34809344349093453484
S1130900109250341092513481E693E0809346342F
S11309109093473410925234109253348091A40827
S113092088608093A4088091A50881608093A508BD
S11309308091A508806C8093A5088091A308806CA1
S11309408093A30880E0089581E008958091A5082C
S113095082FF08C0809132348E7F8093323482E0EB
S113096080933D348091323480FD13C08D7F809319
S113097032348FEF809333348091A508806C809358
S1130980A5088091A3088F738093A30880913D34B8
S1130990089581E008959C019091323492FF0CC037
S11309A02093343430933534609336347093373431
S11309B0892F8B7F8093323408959091323490FD47
S11309C00EC0916090933234882311F081E001C00D
S11309D082E080933C340E94330380E0089581E0F8
S11309E0089580E00C94DD041F920F920FB60F92CD
S11309F011242F933F934F935F936F937F938F9320
S1130A009F93AF93BF93EF93FF930E943303FF91A0
S1130A10EF91BF91AF919F918F917F916F915F9172
S1130A204F913F912F910F900FBE0F901F901895EB
S1130A3061E070E00E94CB0460E070E080E090E050
S1130A400E943C0484E0089561E070E00E94CB04BD
S1130A5060E070E080E090E00E943C0482E0089551
S1130A60FF920F931F93CF93DF9300D01F92CDB7C4
S1130A70DEB7F82E2B8369834A8300E117E28F2DBA
S1130A800E944D04813021F401501109C1F721C0A5
S1130A90BE016D5F7F4F88E195E00E943C0462E0F7
S1130AA070E0CE0101960E94CB0460E070E08FEA12
S1130AB095E00E9441040E94F10400E117E20E94C3
S1130AC0A604813029F401501109C9F782E001C05C
S1130AD080E02396CDBFDEBFDF91CF911F910F91B0
S1130AE0FF900895FF920F931F93CF93DF9300D04D
S1130AF01F92CDB7DEB7F82E8AE28B8369834A83CF
S1130B0002E010E08F2D0E944D048823D9F3BE012A
S1130B106D5F7F4F84E295E00E943C0462E070E0E8
S1130B20CE0101960E94CB0460E070E08FEA95E06C
S1130B300E9441040E94F1040E94A6048130E1F362
S1130B40882319F001501109E9F68B812396CDBF52
S1130B50DEBFDF91CF911F910F91FF90089583E045
S1130B60089580E00895E0E0F8E08DE695E0808760
S1130B70918780E8858380EC868383E0878384E2A1
S1130B8094E38093DE369093DF3680E0089580917D
S1130B90040887FFFCCF8091000808959091040811
S1130BA095FFFCCF8093020808950E94CE0580E053
S1130BB090E00895A0E0B0E0E0EEF5E00C94260AA1
S1130BC05C016B017A016115710519F0FB018083E9
S1130BD09183E114F10429F0C7010297839708F087
S1130BE0E5C0E5012196F5011081812F90E00E9476
S1130BF0F006892B11F05E01F4CF1D3229F4219601
S1130C00F501118101E007C01B3221F4E5012296B0
S1130C10F501118100E0E114F10409F1F0E1EF16AE
S1130C20F10429F43FC010E3E114F10421F128E0B8
S1130C30E216F10401F154F4E2E0EE16F10421F5B8
S1130C40812C912CA12CB0E4BB2E3EC0FAE0EF160F
S1130C50F10439F020E1E216F104B1F430C01033AC
S1130C6019F1FAE0EF2EF12CACEC8A2E982CA82C7A
S1130C70ACE0BA2E29C078E0E72EF12C812C912C1F
S1130C80A12CE0E1BE2E20C060E070E080E090E89E
S1130C9097010F2C000C440B550B0E94F8094901D5
S1130CA05A0112C0103359F488818F7D883509F0B8
S1130CB0BACF19812296026080E1E82EF12C812CB2
S1130CC0912CA12C68E0B62E40E060E070E0CB01EE
S1130CD027010F2C000C66087708FE0150ED352E15
S1130CE0310E29E0231570F42FEB210F2A3118F46B
S1130CF039EC332E06C02FE9210F2A3118F529EAE1
S1130D00322E310E232D30E02E153F05DCF447FD45
S1130D1016C086169706A806B90670F0A3019201BC
S1130D200E94E809630D711D811D911D61307105DB
S1130D30810520E8920710F04FEF01C041E02196B1
S1130D401081CBCF202F2170C114D10471F0442322
S1130D5029F02197F601C083D18307C001FF19C090
S1130D602297F601C083D18314C047FF12C0222307
S1130D7029F060E070E080E090E804C06FEF7FEF5E
S1130D808FEF9FE722E230E02093E2363093E336A0
S1130D9009C0222381F090958095709561957F4FCD
S1130DA08F4F9F4F462F372F282F12C040E030E03F
S1130DB020E090E00DC097FFF5CF82E290E08093B1
S1130DC0E2369093E3366FEF7FEF8FEF9FE7EACF42
S1130DD0642F732F822FCDB7DEB7E1E10C943F0A65
S1130DE091110C943509803219F089508550C8F757
S1130DF00895FB01DC0101900D920020E1F70895B4
S1130E00FB01DC014150504030F08D91019080197C
S1130E1019F40020B9F7881B990B0895A0E0B0E0FD
S1130E20E4E1F7E00C94350AAE014B5F5F4FFA0141
S1130E3061917191AF018091DE369091DF360E940D
S1130E405407E2E00C944E0A0F931F93CF93DF9361
S1130E50E091DE36F091DF36238121FF1BC08C0147
S1130E60D0E0C0E0F80181918F016091DE3670918D
S1130E70DF36DB011896ED91FC911997882331F048
S1130E800995892B79F3DFEFCFEFECCF8AE0099551
S1130E90892B19F08FEF9FEF02C08D2F9C2FDF91CC
S1130EA0CF911F910F910895ABE0B0E0EAE5F7E030
S1130EB00C94250A6C017B018A01FC0116821782BD
S1130EC0838181FFCCC1CE0101963C01F60193815F
S1130ED0F70193FD859193FF81917F01882309F4A4
S1130EE0BAC1853239F493FD859193FF81917F01D5
S1130EF0853229F4B60190E00E944E09E7CF912C87
S1130F00212C312CFFE1F315D8F08B3279F038F431
S1130F10803279F08332A1F4232D20611DC08D32FB
S1130F2061F0803369F4232D216016C0832D826023
S1130F30382EE32DE4603E2E2AC0F32DF8601DC048
S1130F4037FC2DC020ED280F2A3040F08E32B9F442
S1130F5036FC81C1232D2064322E19C036FE06C012
S1130F608AE0989E200D1124922E11C0EAE02E9E54
S1130F70200D1124222EF32DF0623F2E08C08C3652
S1130F8021F4832D8068382E02C0883641F4F7019D
S1130F9093FD859193FF81917F018111B3CF982FA8
S1130FA09F7D9554933028F40C5F1F4F9FE39983E2
S1130FB00DC0833631F0833771F0833509F059C0A1
S1130FC021C0F801808189830E5F1F4F8824839498
S1130FD0912C530113C02801F2E04F0E511CF8016B
S1130FE0A080B18036FE03C0692D70E002C06FEFAF
S1130FF07FEFC5010E9443094C018201F32DFF7765
S11310003F2E16C0280122E0420E511CF801A08098
S1131010B18036FE03C0692D70E002C06FEF7FEF30
S1131020C5010E9438094C01F32DF0683F2E82015E
S113103033FC1BC0822D90E088169906B0F4B601EB
S113104080E290E00E944E092A94F4CFF50137FC27
S1131050859137FE81915F01B60190E00E944E09AF
S113106021102A9421E0821A91088114910471F7C5
S1131070E8C0843611F0893641F5F80137FE07C01F
S113108060817181828193810C5F1F4F08C06081F0
S11310907181072E000C880B990B0E5F1F4FF32DE7
S11310A0FF763F2E97FF09C09095809570956195C6
S11310B07F4F8F4F9F4FF0683F2E2AE030E0A3010F
S11310C00E948A09882E861845C0853731F4232D5D
S11310D02F7EB22E2AE030E025C0932D997FB92EC1
S11310E08F36C1F018F4883579F0B5C0803719F01F
S11310F0883721F0B0C0E92FE061BE2EB4FE0DC0E8
S1131100FB2DF460BF2E09C034FE0AC0292F2660CF
S1131110B22E06C028E030E005C020E130E002C075
S113112020E132E0F801B7FE07C06081718182815D
S113113093810C5F1F4F06C06081718180E090E055
S11311400E5F1F4FA3010E948A09882E8618FB2D6B
S1131150FF773F2E36FE0DC0232D2E7FA22E89143D
S113116058F434FE0BC032FC09C0832D8E7EA82EA9
S113117005C0B82CA32C03C0B82C01C0B92CA4FE04
S11311800FC0FE01E80DF11D8081803321F49A2DFA
S1131190997EA92E09C0A2FE06C0B394B39404C0DC
S11311A08A2D867809F0B394A3FC11C0A0FE06C072
S11311B0B21488F4280C922C9B180EC0B21460F45C
S11311C0B60180E290E00E944E09B394F7CFB214C6
S11311D018F42B1802C0982C212CA4FE10C0B601C0
S11311E080E390E00E944E09A2FE17C0A1FC03C058
S11311F088E790E002C088E590E0B6010CC08A2D33
S1131200867859F0A1FE02C08BE201C080E2A7FCFF
S11312108DE2B60190E00E944E09891438F4B601BB
S113122080E390E00E944E099A94F7CF8A94F301E8
S1131230E80DF11D8081B60190E00E944E098110F5
S1131240F5CF222009F442CEB60180E290E00E945C
S11312504E092A94F6CFF6018681978102C08FEF5A
S11312609FEF2B96E2E10C943E0A99278827089574
S1131270FC010590615070400110D8F7809590955D
S11312808E0F9F1F0895FC01615070400190011062
S1131290D8F7809590958E0F9F1F08950F931F93F5
S11312A0CF93DF93FB01238121FD03C08FEF9FEFD9
S11312B02CC022FF16C046815781248135814217F4
S11312C0530744F4A081B1819D012F5F3F4F2083D8
S11312D031838C93268137812F5F3F4F2683378359
S11312E014C08B01EC01FB010084F185E02D09950C
S11312F0892BE1F6D80116968D919C91179701964A
S113130016968D939C931797CE01DF91CF911F91E1
S11313100F910895FA01AA27283051F1203181F163
S1131320E8946F936E7F6E5F7F4F8F4F9F4FAF4FE9
S1131330B1E03ED0B4E03CD0670F781F891F9A1FFC
S1131340A11D680F791F8A1F911DA11D6A0F711DB0
S1131350811D911DA11D20D009F468943F912AE0BC
S1131360269F11243019305D3193DEF6CF010895A4
S1131370462F4770405D4193B3E00FD0C9F7F6CFD5
S1131380462F4F70405D4A3318F0495D31FD40529D
S1131390419302D0A9F7EACFB4E0A6959795879533
S11313A077956795BA95C9F7009761057105089512
S11313B09B01AC010A2E06945795479537952795BE
S11313C0BA95C9F7620F731F841F951FA01D089556
S11313D0DB018F939F930E941A0ABF91AF91A29F42
S11313E0800D911DA39F900DB29F900D112408951F
S11313F0A1E21A2EAA1BBB1BFD010DC0AA1FBB1F15
S1131400EE1FFF1FA217B307E407F50720F0A21B86
S1131410B30BE40BF50B661F771F881F991F1A94F3
S113142069F760957095809590959B01AC01BD011D
S1131430CF0108950E94560AA59F900DB49F900D68
S1131440A49F800D911D112408952F923F924F92D5
S11314505F926F927F928F929F92AF92BF92CF9240
S1131460DF92EF92FF920F931F93CF93DF93CDB749
S1131470DEB7CA1BDB0BCDBFDEBF09942A883988CF
S113148048885F846E847D848C849B84AA84B98418
S1131490C884DF80EE80FD800C811B81AA81B98124
S11314A0CE0FD11DCDBFDEBFED010895A29FB001C7
S11314B0B39FC001A39F700D811D1124911DB29F84
S11114C0700D811D1124911D0895F894FFCF25
S11314CE0D0D2A2A2A2A2044455349474E454420C5
S11314DE42592048534D2032322E3036202A2A2AA1
S11314EE2A0D0D0069696320733020000A536C6164
S11314FE76652041646472657373203D20307825CF
S113150E3032580A000A454E54455220536C6176C7
S113151E65204164647265737320416761696E006E
S113152E6969632077322000454E54455220534C4E
S113153E415645204144445245535320000A454EDA
S113154E5445522052656769737465722041646410
S113155E72657320416761696E000A6572726F72FB
S113156E203D2025640A000A454E5445522044610C
S113157E746120416761696E00696963207232206B
S113158E000A44415441203D203078253032580A17
S113159E000A454E5445522052656769737465724C
S11315AE204164647265737320416761696E000A39
S11315BE494E505554203D20000A0A2D2D2D2D2D17
S11315CE2D2D2D2D2D2D2D2D2D2D2D2D2D2D2D2D39
S11315DE2D2D2D2D2D2D2D2D2D2D2D2D2D2D0A0079
S11315EE4D61696E4C696E6B20545830204C4F43DC
S11315FE4B4E202E2E2E2E2E2E2E2E2E2E2E2E2ECA
S113160E2E2E2E2E2E2E0D00307830302C3078319A
S113161E3020723D20307825780D00307831302C12
S113162E3078314420723D20307825780D003078A2
S113163E31302C3078314520723D20307825780DAC
S113164E00307831302C3078303020723D203078B4
S113165E25780D00307831302C3078303120723DC1
S113166E20307825780D0D00307831302C307830DC
S113167E4620723D20307825780D00307831302C9C
S113168E3078313120723D20307825780D00307855
S113169E31302C3078313220723D20307825780D5F
S11316AE00307831302C3078313320723D20307850
S11316BE25780D00307831302C3078313420723D5D
S11316CE20307825780D00307831302C3078313553
S11316DE20723D20307825780D00307831302C3052
S11316EE78313620723D20307825780D0D00307813
S11316FE31302C3078324220723D20307825780DEE
S113170E00307831302C3078324620723D203078DB
S113171E25780D00307831302C3078303720723DFA
S113172E20307825780D00307831302C30783244E2
S113173E20723D20307825780D00307831302C30F1
S113174E78324320723D20307825780D0030783180
S113175E302C3078303520723D20307825780D00CD
S113176E307831302C3078303620723D2030782568
S113177E780D0D00307831302C3078353320723DB1
S113178E20307825780D0D004572725F434E543D1E
S113179E2564202E2E2E2E2E2E2E2E2E2E2E2E2E38
S11317AE2E2E2E2E2E2E0D0D00307830302C30781D
S11317BE463320723D20307825780D003078303055
S11317CE2C3078463220723D20307825780D00304A
S11317DE7830302C3078463020723D2030782578A1
S11317EE0D00307830302C3078464620723D203053
S11317FE7825780D00307830302C307846362072CB
S113180E3D20307825780D00307830302C307843F8
S113181E3920723D20307825780D00307830302C08
S113182E3078434120723D20307825780D0D0030FC
S113183E7831302C3078463320723D20307825783C
S113184E0D00307831302C3078313620723D203016
S113185E7825780D00307831302C30783031207284
S113186E3D20307825780D00307831302C307830AA
S113187E3220723D20307825780D0D0030783130CD
S113188E2C3078353320723D20307825780D003099
S113189E7831302C3078353520723D2030782578EB
S11318AE0D00307831302C3078303420723D2030B9
S11318BE7825780D00307831302C3078323720721C
S11318CE3D20307825780D00307831302C3078304A
S11318DE3820723D20307825780D00307831302C48
S11318EE3078303920723D20307825780D003078EC
S11318FE31302C3078304320723D20307825780DED
S113190E00307831302C3078304420723D203078DD
S113191E25780D0D00307831302C30783036207229
S113192E3D20307825780D00307831302C307831E8
S113193E4520723D20307825780D0D004572725F7A
S10B194E434E543D25640D00D5
S11319569702AC02BA028203BA030C043A04C50223
S1131966B8029F02E202E902F00200038702C702FC
S1131976070322030000000200000000D505000052
S105198600005B
S9030000FC
