:100000000C943C000C9459000C9459000C94590029
:100010000C9459000C9459000C9459000C945900FC
:100020000C9459000C9459000C9459000C945900EC
:100030000C9459000C9459000C9459000C949E0295
:100040000C9459000C9459000C9459000C945900CC
:100050000C9459000C9459000C9459000C945900BC
:100060000C9459000C9459000C9459000C945900AC
:100070000C9459000C94590011241FBECFEFCDBF32
:10008000DFE3DEBF14E3A0E0B4E3EBE9FBE002C092
:1000900005900D92A233B107D9F724E3A2E3B4E3AC
:1000A00001C01D92AC35B207E1F70E945E000C94CE
:1000B000B8050C9400000E94D30008950E945B00D4
:1000C000789484E79BE89F938F930E94E0020F90BF
:1000D0000F902AE684E091E0215080409040E1F7C3
:1000E00000C0F7CF80E0089580E0089580E0089593
:1000F00080E008C0E82FF0E0E05FFB4F908198605F
:1001000090838F5F8830B0F380E008C0E82FF0E084
:10011000E05DFB4F9081986090838F5F8830B0F3F3
:1001200080E008C0E82FF0E0E05BFB4F9081986032
:1001300090838F5F8830B0F3089584B1877F84B94E
:10014000E3E3F4E08081877F808385B18B7F85B98D
:1001500084B1846084B90E94C402089585B18E7F01
:1001600085B984B1816084B9E0E3F4E08081877F60
:10017000808380818F7780838081887F808385B131
:100180008D7F85B984B1826084B9E1E3F4E0808138
:10019000877F808380818F7780838081887F808341
:1001A0000E94970208950E9478000E9474000E94A5
:1001B0009D000E9476000E94C2020E94AE000E9432
:1001C00072000895E0EAF8E0848188608483858184
:1001D00081608583E2E3F4E380818E7F80831386F0
:1001E0008EE00895E2E3F4E380818E7F80831386BE
:1001F00080E00895E0EAF8E08481836084830E94CF
:10020000F2000895E2E3F4E38081886080838181D5
:1002100090E0880F991F81608093A70884E008957B
:100220000E94020108950E9402010895E2E3F4E3AE
:100230008081886080838181880F8093A70883E014
:1002400008950E9416010895A2E3B4E38C91877F7C
:100250008C9382E01B968C931B975096ED91FC91AA
:1002600051975C968D919C915D970995823019F01C
:10027000833021F006C00E94130108950E942101DD
:1002800008950E94FA000895E0EAF8E084818B7FE7
:10029000848384E00895E0EAF8E084818B7F84839E
:1002A00083E00895E0EAF8E08481846084838481B7
:1002B000836084830E94F2000895E0EAF8E084817C
:1002C0008460848388E008958091A50884FF19C024
:1002D000A2E3B4E35296ED91FC9153975E968D9113
:1002E0009C915F970995823019F0833021F006C008
:1002F0000E94130108950E94210108950E94FA00AE
:100300000895E2E3F4E38081877F8083A281B38153
:10031000CD010196828393838C918093A808848178
:100320009581019784839583892B11F083E008954B
:1003300085E00895CF93DF93E2E3F4E38081877F44
:10034000808384819581019731F4E0EAF8E084812B
:100350008460848305C0E0EAF8E084818B7F848335
:10036000E2E3F4E384819581019784839583892B6B
:10037000A9F0DF01C281D381E0EAF8E080858883BB
:1003800012968D919C911397019612968D939C9342
:10039000139784818260848384E026C0A2E3B4E35F
:1003A0001296ED91FC9113978091A8088083129684
:1003B0008D919C911397019612968D939C93139710
:1003C0008C9184608C931C96ED91FC911D975896AE
:1003D0008D919C91599709958250823018F40E9412
:1003E0005D0102C00E945201DF91CF91089580917A
:1003F000A50884FF19C0A2E3B4E35296ED91FC91E5
:1004000053975E968D919C915F970995823019F074
:10041000833021F006C00E94130108950E9421013B
:1004200008950E94FA000895A2E3B4E38C918460D9
:100430008C931C96ED91FC911D9758968D919C91F3
:1004400059970995833039F0843041F0823049F46E
:100450000E94130108950E94210108950E946401E1
:1004600008950E94FA000895E0EAF8E08581886026
:100470008583A2E3B4E382E01B968C931B971E96C0
:10048000ED91FC911F975A968D919C915B970995E0
:10049000823019F0833021F006C00E9413010895C4
:1004A0000E94210108950E94E2000895E0EAF8E028
:1004B000848188608483858181608583E2E3F4E3BD
:1004C00080818E7F808382E083878EE00895CF9342
:1004D000DF93E0EAF8E08581806C85838091323497
:1004E00083FF07C08091A50884FF03C08FE080933D
:1004F0003C348091A50883FF03C080E180933C34A5
:100500008091A50882FF03C081E180933C34C2E35F
:10051000D4E3EA85F0E0EE0FFF1FE050FC4C0190C1
:10052000F081E02D09958A87DF91CF910895E0EA67
:10053000F8E08BE0868381EC838308951F920F920D
:100540000FB60F9211242F933F934F935F936F93A6
:100550007F938F939F93AF93BF93EF93FF930E94EB
:100560006702FF91EF91BF91AF919F918F917F9122
:100570006F915F914F913F912F910F900FBE0F9010
:100580001F90189580E00895E0E0F8E08DE695E092
:100590008087918780EC868384E294E3809358344B
:1005A0009093593480E008959091040895FFFCCF12
:1005B0008093020808950E94D40280E090E008959C
:1005C000A0E0B0E0E6EEF2E00C949705AE014B5FE0
:1005D0005F4FFA0161917191AF0180915834909110
:1005E00059340E94F602E2E00C94B005ABE0B0E0B2
:1005F000ECEFF2E00C9487056C017B018A01FC01B1
:1006000016821782838181FFCCC1CE0101963C0105
:10061000F6019381F70193FD859193FF81917F010D
:10062000882309F4BAC1853239F493FD859193FF8B
:1006300081917F01853229F4B60190E00E94ED049A
:10064000E7CF912C212C312CFFE1F315D8F08B3220
:1006500079F038F4803279F08332A1F4232D2061CF
:100660001DC08D3261F0803369F4232D216016C0E6
:10067000832D8260382EE32DE4603E2E2AC0F32DB8
:10068000F8601DC037FC2DC020ED280F2A3040F047
:100690008E32B9F436FC81C1232D2064322E19C06C
:1006A00036FE06C08AE0989E200D1124922E11C0BD
:1006B000EAE02E9E200D1124222EF32DF0623F2E13
:1006C00008C08C3621F4832D8068382E02C088360D
:1006D00041F4F70193FD859193FF81917F01811191
:1006E000B3CF982F9F7D9554933028F40C5F1F4F04
:1006F0009FE399830DC0833631F0833771F08335E2
:1007000009F059C021C0F801808189830E5F1F4F15
:1007100088248394912C530113C02801F2E04F0EDA
:10072000511CF801A080B18036FE03C0692D70E035
:1007300002C06FEF7FEFC5010E94E2044C0182010D
:10074000F32DFF773F2E16C0280122E0420E511CE8
:10075000F801A080B18036FE03C0692D70E002C0B0
:100760006FEF7FEFC5010E94D7044C01F32DF068B5
:100770003F2E820133FC1BC0822D90E08816990623
:10078000B0F4B60180E290E00E94ED042A94F4CF28
:10079000F50137FC859137FE81915F01B60190E04C
:1007A0000E94ED0421102A9421E0821A91088114FC
:1007B000910471F7E8C0843611F0893641F5F801EB
:1007C00037FE07C060817181828193810C5F1F4F6A
:1007D00008C060817181072E000C880B990B0E5F99
:1007E0001F4FF32DFF763F2E97FF09C09095809500
:1007F000709561957F4F8F4F9F4FF0683F2E2AE095
:1008000030E0A3010E942905882E861845C085374F
:1008100031F4232D2F7EB22E2AE030E025C0932D17
:10082000997FB92E8F36C1F018F4883579F0B5C0AC
:10083000803719F0883721F0B0C0E92FE061BE2E73
:10084000B4FE0DC0FB2DF460BF2E09C034FE0AC0FB
:10085000292F2660B22E06C028E030E005C020E136
:1008600030E002C020E132E0F801B7FE07C060814D
:100870007181828193810C5F1F4F06C060817181FD
:1008800080E090E00E5F1F4FA3010E942905882E93
:100890008618FB2DFF773F2E36FE0DC0232D2E7FB1
:1008A000A22E891458F434FE0BC032FC09C0832DEB
:1008B0008E7EA82E05C0B82CA32C03C0B82C01C076
:1008C000B92CA4FE0FC0FE01E80DF11D808180331C
:1008D00021F49A2D997EA92E09C0A2FE06C0B394D8
:1008E000B39404C08A2D867809F0B394A3FC11C098
:1008F000A0FE06C0B21488F4280C922C9B180EC0DF
:10090000B21460F4B60180E290E00E94ED04B3946A
:10091000F7CFB21418F42B1802C0982C212CA4FE87
:1009200010C0B60180E390E00E94ED04A2FE17C063
:10093000A1FC03C088E790E002C088E590E0B60122
:100940000CC08A2D867859F0A1FE02C08BE201C04E
:1009500080E2A7FC8DE2B60190E00E94ED048914CC
:1009600038F4B60180E390E00E94ED049A94F7CF4A
:100970008A94F301E80DF11D8081B60190E00E9498
:10098000ED048110F5CF222009F442CEB60180E2B9
:1009900090E00E94ED042A94F6CFF60186819781BB
:1009A00002C08FEF9FEF2B96E2E10C94A005FC01B3
:1009B0000590615070400110D8F7809590958E0F8A
:1009C0009F1F0895FC016150704001900110D8F7FD
:1009D000809590958E0F9F1F08950F931F93CF932F
:1009E000DF93FB01238121FD03C08FEF9FEF2CC01C
:1009F00022FF16C046815781248135814217530753
:100A000044F4A081B1819D012F5F3F4F208331834A
:100A10008C93268137812F5F3F4F2683378314C005
:100A20008B01EC01FB010084F185E02D0995892BF8
:100A3000E1F6D80116968D919C911797019616961E
:100A40008D939C931797CE01DF91CF911F910F91BA
:100A50000895FA01AA27283051F1203181F1E89454
:100A60006F936E7F6E5F7F4F8F4F9F4FAF4FB1E0A1
:100A70003ED0B4E03CD0670F781F891F9A1FA11D9C
:100A8000680F791F8A1F911DA11D6A0F711D811D9D
:100A9000911DA11D20D009F468943F912AE0269F62
:100AA00011243019305D3193DEF6CF010895462FC1
:100AB0004770405D4193B3E00FD0C9F7F6CF462FA2
:100AC0004F70405D4A3318F0495D31FD405241930B
:100AD00002D0A9F7EACFB4E0A695979587957795C8
:100AE0006795BA95C9F700976105710508959B014F
:100AF000AC010A2E06945795479537952795BA95D8
:100B0000C9F7620F731F841F951FA01D08952F92B0
:100B10003F924F925F926F927F928F929F92AF928D
:100B2000BF92CF92DF92EF92FF920F931F93CF93DA
:100B3000DF93CDB7DEB7CA1BDB0BCDBFDEBF099499
:100B40002A88398848885F846E847D848C849B845D
:100B5000AA84B984C884DF80EE80FD800C811B816B
:100B6000AA81B981CE0FD11DCDBFDEBFED010895A1
:040B7000F894FFCF27
:100B74000D0D2A2A2A2A2044455349474E4544202C
:100B8400425920524F494956452032322E303620A0
:070B94002A2A2A2A0D0D0098
:100B9B00F2000201160164019A01F7011301210110
:100BAB001001FA0044014B0152015D01E2002401E6
:100BBB00340256020000000200000000DB020000BD
:020BCB00000028
:00000001FF
